{"abi":[{"type":"constructor","inputs":[{"name":"name","type":"string","internalType":"string"},{"name":"ticker","type":"string","internalType":"string"},{"name":"initialBalance","type":"uint256","internalType":"uint256"},{"name":"__decimals","type":"uint8","internalType":"uint8"}],"stateMutability":"nonpayable"},{"type":"function","name":"allowance","inputs":[{"name":"owner","type":"address","internalType":"address"},{"name":"spender","type":"address","internalType":"address"}],"outputs":[{"name":"","type":"uint256","internalType":"uint256"}],"stateMutability":"view"},{"type":"function","name":"approve","inputs":[{"name":"spender","type":"address","internalType":"address"},{"name":"value","type":"uint256","internalType":"uint256"}],"outputs":[{"name":"","type":"bool","internalType":"bool"}],"stateMutability":"nonpayable"},{"type":"function","name":"balanceOf","inputs":[{"name":"account","type":"address","internalType":"address"}],"outputs":[{"name":"","type":"uint256","internalType":"uint256"}],"stateMutability":"view"},{"type":"function","name":"decimals","inputs":[],"outputs":[{"name":"","type":"uint8","internalType":"uint8"}],"stateMutability":"view"},{"type":"function","name":"name","inputs":[],"outputs":[{"name":"","type":"string","internalType":"string"}],"stateMutability":"view"},{"type":"function","name":"safeMint","inputs":[{"name":"account","type":"address","internalType":"address"},{"name":"amount","type":"uint256","internalType":"uint256"}],"outputs":[{"name":"","type":"bool","internalType":"bool"}],"stateMutability":"nonpayable"},{"type":"function","name":"safeTransfer","inputs":[{"name":"recipient","type":"address","internalType":"address"},{"name":"amount","type":"uint256","internalType":"uint256"}],"outputs":[{"name":"","type":"bool","internalType":"bool"}],"stateMutability":"nonpayable"},{"type":"function","name":"symbol","inputs":[],"outputs":[{"name":"","type":"string","internalType":"string"}],"stateMutability":"view"},{"type":"function","name":"totalSupply","inputs":[],"outputs":[{"name":"","type":"uint256","internalType":"uint256"}],"stateMutability":"view"},{"type":"function","name":"transfer","inputs":[{"name":"to","type":"address","internalType":"address"},{"name":"value","type":"uint256","internalType":"uint256"}],"outputs":[{"name":"","type":"bool","internalType":"bool"}],"stateMutability":"nonpayable"},{"type":"function","name":"transferFrom","inputs":[{"name":"from","type":"address","internalType":"address"},{"name":"to","type":"address","internalType":"address"},{"name":"value","type":"uint256","internalType":"uint256"}],"outputs":[{"name":"","type":"bool","internalType":"bool"}],"stateMutability":"nonpayable"},{"type":"event","name":"Approval","inputs":[{"name":"owner","type":"address","indexed":true,"internalType":"address"},{"name":"spender","type":"address","indexed":true,"internalType":"address"},{"name":"value","type":"uint256","indexed":false,"internalType":"uint256"}],"anonymous":false},{"type":"event","name":"Transfer","inputs":[{"name":"from","type":"address","indexed":true,"internalType":"address"},{"name":"to","type":"address","indexed":true,"internalType":"address"},{"name":"value","type":"uint256","indexed":false,"internalType":"uint256"}],"anonymous":false},{"type":"error","name":"ERC20InsufficientAllowance","inputs":[{"name":"spender","type":"address","internalType":"address"},{"name":"allowance","type":"uint256","internalType":"uint256"},{"name":"needed","type":"uint256","internalType":"uint256"}]},{"type":"error","name":"ERC20InsufficientBalance","inputs":[{"name":"sender","type":"address","internalType":"address"},{"name":"balance","type":"uint256","internalType":"uint256"},{"name":"needed","type":"uint256","internalType":"uint256"}]},{"type":"error","name":"ERC20InvalidApprover","inputs":[{"name":"approver","type":"address","internalType":"address"}]},{"type":"error","name":"ERC20InvalidReceiver","inputs":[{"name":"receiver","type":"address","internalType":"address"}]},{"type":"error","name":"ERC20InvalidSender","inputs":[{"name":"sender","type":"address","internalType":"address"}]},{"type":"error","name":"ERC20InvalidSpender","inputs":[{"name":"spender","type":"address","internalType":"address"}]}],"bytecode":{"object":"0x608060405234801561000f575f5ffd5b50604051610cd9380380610cd983398101604081905261002e91610279565b8383600361003c8382610382565b5060046100498282610382565b50505061005c338361007960201b60201c565b6005805461ffff191660ff90921691909117905550610461915050565b6001600160a01b0382166100a75760405163ec442f0560e01b81525f60048201526024015b60405180910390fd5b6100b25f83836100b6565b5050565b6001600160a01b0383166100e0578060025f8282546100d5919061043c565b909155506101509050565b6001600160a01b0383165f90815260208190526040902054818110156101325760405163391434e360e21b81526001600160a01b0385166004820152602481018290526044810183905260640161009e565b6001600160a01b0384165f9081526020819052604090209082900390555b6001600160a01b03821661016c5760028054829003905561018a565b6001600160a01b0382165f9081526020819052604090208054820190555b816001600160a01b0316836001600160a01b03167fddf252ad1be2c89b69c2b068fc378daa952ba7f163c4a11628f55a4df523b3ef836040516101cf91815260200190565b60405180910390a3505050565b634e487b7160e01b5f52604160045260245ffd5b5f82601f8301126101ff575f5ffd5b81516001600160401b03811115610218576102186101dc565b604051601f8201601f19908116603f011681016001600160401b0381118282101715610246576102466101dc565b60405281815283820160200185101561025d575f5ffd5b8160208501602083015e5f918101602001919091529392505050565b5f5f5f5f6080858703121561028c575f5ffd5b84516001600160401b038111156102a1575f5ffd5b6102ad878288016101f0565b602087015190955090506001600160401b038111156102ca575f5ffd5b6102d6878288016101f0565b93505060408501519150606085015160ff811681146102f3575f5ffd5b939692955090935050565b600181811c9082168061031257607f821691505b60208210810361033057634e487b7160e01b5f52602260045260245ffd5b50919050565b601f82111561037d57805f5260205f20601f840160051c8101602085101561035b5750805b601f840160051c820191505b8181101561037a575f8155600101610367565b50505b505050565b81516001600160401b0381111561039b5761039b6101dc565b6103af816103a984546102fe565b84610336565b6020601f8211600181146103e1575f83156103ca5750848201515b5f19600385901b1c1916600184901b17845561037a565b5f84815260208120601f198516915b8281101561041057878501518255602094850194600190920191016103f0565b508482101561042d57868401515f19600387901b60f8161c191681555b50505050600190811b01905550565b8082018082111561045b57634e487b7160e01b5f52601160045260245ffd5b92915050565b61086b8061046e5f395ff3fe608060405234801561000f575f5ffd5b50600436106100a6575f3560e01c8063423f6cef1161006e578063423f6cef1461012557806370a082311461013857806395d89b4114610160578063a144819414610168578063a9059cbb1461017b578063dd62ed3e1461018e575f5ffd5b806306fdde03146100aa578063095ea7b3146100c857806318160ddd146100eb57806323b872dd146100fd578063313ce56714610110575b5f5ffd5b6100b26101c6565b6040516100bf91906106db565b60405180910390f35b6100db6100d636600461072b565b610256565b60405190151581526020016100bf565b6002545b6040519081526020016100bf565b6100db61010b366004610753565b61026f565b60055460405160ff90911681526020016100bf565b6100db61013336600461072b565b610292565b6100ef61014636600461078d565b6001600160a01b03165f9081526020819052604090205490565b6100b261031e565b6100db61017636600461072b565b61032d565b6100db61018936600461072b565b6103b3565b6100ef61019c3660046107ad565b6001600160a01b039182165f90815260016020908152604080832093909416825291909152205490565b6060600380546101d5906107de565b80601f0160208091040260200160405190810160405280929190818152602001828054610201906107de565b801561024c5780601f106102235761010080835404028352916020019161024c565b820191905f5260205f20905b81548152906001019060200180831161022f57829003601f168201915b5050505050905090565b5f336102638185856103c0565b60019150505b92915050565b5f3361027c8582856103d2565b61028785858561044e565b506001949350505050565b6005545f90610100900460ff16156102f15760405162461bcd60e51b815260206004820152601f60248201527f5265656e7472616e637947756172643a207265656e7472616e742063616c6c0060448201526064015b60405180910390fd5b6005805461ff0019166101001790555f61030b84846103b3565b6005805461ff0019169055949350505050565b6060600480546101d5906107de565b6005545f90610100900460ff16156103875760405162461bcd60e51b815260206004820152601f60248201527f5265656e7472616e637947756172643a207265656e7472616e742063616c6c0060448201526064016102e8565b6005805461ff0019166101001790556103a083836104ab565b50506005805461ff001916905550600190565b5f3361026381858561044e565b6103cd83838360016104e3565b505050565b6001600160a01b038381165f908152600160209081526040808320938616835292905220545f19811015610448578181101561043a57604051637dc7a0d960e11b81526001600160a01b038416600482015260248101829052604481018390526064016102e8565b61044884848484035f6104e3565b50505050565b6001600160a01b03831661047757604051634b637e8f60e11b81525f60048201526024016102e8565b6001600160a01b0382166104a05760405163ec442f0560e01b81525f60048201526024016102e8565b6103cd8383836105b5565b6001600160a01b0382166104d45760405163ec442f0560e01b81525f60048201526024016102e8565b6104df5f83836105b5565b5050565b6001600160a01b03841661050c5760405163e602df0560e01b81525f60048201526024016102e8565b6001600160a01b03831661053557604051634a1406b160e11b81525f60048201526024016102e8565b6001600160a01b038085165f908152600160209081526040808320938716835292905220829055801561044857826001600160a01b0316846001600160a01b03167f8c5be1e5ebec7d5bd14f71427d1e84f3dd0314c0f7b2291e5b200ac8c7c3b925846040516105a791815260200190565b60405180910390a350505050565b6001600160a01b0383166105df578060025f8282546105d49190610816565b9091555061064f9050565b6001600160a01b0383165f90815260208190526040902054818110156106315760405163391434e360e21b81526001600160a01b038516600482015260248101829052604481018390526064016102e8565b6001600160a01b0384165f9081526020819052604090209082900390555b6001600160a01b03821661066b57600280548290039055610689565b6001600160a01b0382165f9081526020819052604090208054820190555b816001600160a01b0316836001600160a01b03167fddf252ad1be2c89b69c2b068fc378daa952ba7f163c4a11628f55a4df523b3ef836040516106ce91815260200190565b60405180910390a3505050565b602081525f82518060208401528060208501604085015e5f604082850101526040601f19601f83011684010191505092915050565b80356001600160a01b0381168114610726575f5ffd5b919050565b5f5f6040838503121561073c575f5ffd5b61074583610710565b946020939093013593505050565b5f5f5f60608486031215610765575f5ffd5b61076e84610710565b925061077c60208501610710565b929592945050506040919091013590565b5f6020828403121561079d575f5ffd5b6107a682610710565b9392505050565b5f5f604083850312156107be575f5ffd5b6107c783610710565b91506107d560208401610710565b90509250929050565b600181811c908216806107f257607f821691505b60208210810361081057634e487b7160e01b5f52602260045260245ffd5b50919050565b8082018082111561026957634e487b7160e01b5f52601160045260245ffdfea2646970667358221220da96589291e9512be988d904d75104137c82946941a7b910b36309c2ccaf9e9264736f6c634300081c0033","linkReferences":{}},"methodIdentifiers":{"allowance(address,address)":"dd62ed3e","approve(address,uint256)":"095ea7b3","balanceOf(address)":"70a08231","decimals()":"313ce567","name()":"06fdde03","safeMint(address,uint256)":"a1448194","safeTransfer(address,uint256)":"423f6cef","symbol()":"95d89b41","totalSupply()":"18160ddd","transfer(address,uint256)":"a9059cbb","transferFrom(address,address,uint256)":"23b872dd"},"id":25}